:1000000027C04BC04AC049C048C039C246C045C0DD
:1000100044C043C042C041C040C03FC03EC00000D9
:100020000000360001020000040000000000000093
:100030000000380000000000370002020202020245
:100040000202020201020408102020041008AE027D
:1000500011241FBECFE5D2E0DEBFCDBF10E0A0E689
:10006000B0E0E2E2F7E002C005900D92A036B107E1
:10007000D9F720E0A0E6B0E001C01D92A03CB20795
:10008000E1F710E0C8E2D0E003C02197FE0141D3C0
:10009000C732D107D1F73DD242C3B2CFCF93DF935E
:1000A00090E0FC01EC5BFF4F2491FC01E65CFF4F0C
:1000B00084918823C1F090E0880F991FFC01EC5CCB
:1000C000FF4FC591D491FC01E25DFF4FA591B49122
:1000D0009FB7F8948881E22FE0958E2388838C91D6
:1000E000E823EC939FBFDF91CF9108958F929F9269
:1000F000AF92BF92EF92FF920F931F9349015A0163
:10010000A8019701281939094A095B095ED2B9018A
:10011000CA012FEF33E040E050E03BD2CA01B90101
:10012000680D791D8A1D9B1D1F910F91FF90EF9007
:10013000BF90AF909F908F9008958091B00080FF06
:1001400002C0826001C08D7F8093B0008091AE00BC
:1001500090E0FC01EC5DFF4F2491FC01EC5BFF4F54
:100160003491FC01E65CFF4FE491EE2329F1222358
:1001700099F0223071F028F4213071F48AB58F772C
:100180000AC0233011F0243039F48CB58F7D8CBD3A
:1001900003C08AB58F7D8ABDF0E0EE0FFF1FE25EDF
:1001A000FF4FA591B491EC91E32391E080E009F435
:1001B00090E0292F382F02C020E030E04091AF00BE
:1001C00050E08091B0002417350711F48E7F01C0F4
:1001D00081608093B0008091B000282F30E0A901A9
:1001E000559547952427352720FF44C080FF24C01C
:1001F0008091BD009091BE0001969093BE008093C7
:10020000BD00E091B500F091B600309719F08EEA8C
:1002100090E009952FB7F8948091AA009091AB00D7
:10022000A091AC00B091AD002FBF9093B20080932D
:10023000B1001092BF0018C0E091B700F091B80073
:10024000309719F08EEA90E00995E091B900F091AD
:10025000BA00309719F08EEA90E009958FEF9FEF82
:100260009093B2008093B1008091B000846080933D
:10027000B00037C08B7F8093B0008091B100909127
:10028000B200019671F18091BF0081112AC08FB731
:10029000F8944091AA005091AB006091AC0070912D
:1002A000AD008FBF8091B1009091B200481B590BF7
:1002B000610971098091B3009091B400A0E0B0E0B1
:1002C00084179507A607B70760F4E091BB00F0918B
:1002D000BC00309731F08EEA90E0099581E0809380
:1002E000BF008091B00081700895863008F086507C
:1002F000877087B9369A3699FECF84B125B190E0E0
:10030000922B08950895B99AC1980895EF92FF929B
:100310000F931F9387E0E9DFBC01990F880B990BBE
:1003200010E1E12EF12C00E010E020E030E0A90126
:10033000DDDECB011F910F91FF90EF90089580E0DB
:10034000ADCEEF92FF920F931F93CF93DF93F5DE25
:10035000C82F8091A300C81709F45EC0CC2309F40C
:100360005BC081E08093A2008091A0009091A100E9
:10037000009709F47BC0019709F47FC083E0B5DFE3
:10038000BC01990F880B990BE12CF12C87012FEF01
:1003900030E040E050E0AADEE3E6F0E0DF01139752
:1003A0006C9311966C9311966C936083349680E0F5
:1003B000E33AF80799F78FB7F894E0E6F0E0619137
:1003C00070E027E030E008C092E09A95F1F700C0B5
:1003D000C1982150310990F0AB01022E02C0559511
:1003E00047950A94E2F7C19A40FDEECFC19892E09A
:1003F0009A95F1F700C02150310970F790E0E03A8A
:10040000F907E9F68FBFC093A300DF91CF911F9149
:100410000F91FF90EF9008958091A0009091A1001E
:10042000009701F1019709F0A9CFD091A20000E057
:1004300010E005C00F5F1F4F0031110551F066DF5E
:1004400008171907B8F362DF0F5F1F4F003111055E
:10045000B1F7DD2321F01092A1001092A0001092BC
:10046000A2008CCF8091A2008823C9F381E090E0A4
:100470009093A1008093A000F2CFD1E0D8CF1F923B
:100480000F920FB60F9211242F933F938F939F9348
:10049000AF93BF938091AA009091AB00A091AC0064
:1004A000B091AD003091A90026E0230F2D3720F444
:1004B0000296A11DB11D05C029E8230F0396A11DB9
:1004C000B11D2093A9008093AA009093AB00A09344
:1004D000AC00B093AD008091A5009091A600A091D2
:1004E000A700B091A8000196A11DB11D8093A500A1
:1004F0009093A600A093A700B093A800BF91AF91DE
:100500009F918F913F912F910F900FBE0F901F9051
:10051000189578948AB582608ABD8AB581608ABD53
:1005200083B7826083BF83B7816083BF89B78260EE
:1005300089BF80B7826080BF80B7816080BF329AF8
:10054000319A3098379A8CB580648CBDF8DEC0E063
:10055000D0E0F7DE2097E9F353DDFBCFCF93DF93B5
:1005600084EA90E0D0DECEEAD0E0188280E096DD2A
:10057000198281E08A8318861F821A8619861C8652
:100580001B861E861D86188A1F86898BDF91CF9158
:100590000895052E97FB16F400940FD057FD05D053
:1005A00068D007FC02D046F408C0509540953095BD
:1005B00021953F4F4F4F5F4F0895909580957095CF
:1005C00061957F4F8F4F9F4F089568940013E89473
:1005D000A0E0B0E0EDEEF2E01DC0EFEFE7F9590169
:1005E0006A015E23550FEE08FE2C87019B01AC01CA
:1005F0009E23990F660B762FCB015DD0CDB7DEB76A
:10060000EAE024C02F923F924F925F926F927F92C6
:100610008F929F92AF92BF92CF92DF92EF92FF9212
:100620000F931F93CF93DF93CDB7DEB7CA1BDB0BBE
:100630000FB6F894DEBF0FBECDBF09942A88398863
:1006400048885F846E847D848C849B84AA84B9846A
:10065000C884DF80EE80FD800C811B81AA81B98176
:10066000CE0FD11D0FB6F894DEBF0FBECDBFED018A
:100670000895A1E21A2EAA1BBB1BFD010DC0AA1FE3
:10068000BB1FEE1FFF1FA217B307E407F50720F0FB
:10069000A21BB30BE40BF50B661F771F881F991F76
:1006A0001A9469F760957095809590959B01AC01BF
:1006B000BD01CF010895DF93CF939F92A0E49A2EBE
:1006C0000024D001E001F00116950795F794E79416
:1006D000D794C794B794A79448F41068A20FB31F97
:1006E000C41FD51FE61FF71F081E191E220F331F38
:1006F000441F551F661F771F881F991F9A9421F763
:100700009D01AE01BF01C00111249F90CF91DF91E7
:100710000895EE0FFF1F0590F491E02D0994F894D1
:02072000FFCF09
:00000001FF
